:020000021000EC
:1090000000600020BD920100E5920100E79201009E
:10901000E9920100EB920100ED92010000000000D6
:10902000000000000000000000000000EF920100BE
:10903000F192010000000000F3920100F59201009E
:10904000E1BF0100F7920100BDC10100B5DD0100E3
:10905000F7920100000000006DC0010011D6010070
:10906000F7920100F7920100F7920100F7920100D8
:10907000F7920100F7920100F7920100F7920100C8
:10908000F792010085A30100F7920100F792010019
:10909000F7920100F7920100AD170200F79201006C
:1090A000F7920100F79201000000000000000000AC
:1090B000F7920100F792010000000000000000009C
:1090C00000000000000000000000000000000000A0
:1090D0000000000000000000000000000000000090
:1090E0000000000000000000000000000000000080
:1090F0000000000000000000000000000000000070
:10910000000000000000000000000000000000005F
:10911000000000000000000000000000000000004F
:10912000000000000000000000000000000000003F
:10913000000000000000000000000000000000002F
:10914000000000000000000000000000000000001F
:10915000000000000000000000000000000000000F
:1091600000000000000000000000000000000000FF
:1091700000000000000000000000000000000000EF
:1091800000000000000000000000000000000000DF
:1091900000000000000000000000000000000000CF
:1091A00000000000000000000000000000000000BF
:1091B00000000000000000000000000000000000AF
:1091C000000000000000000000000000000000009F
:1091D000000000000000000000000000000000008F
:1091E000000000000000000000000000000000007F
:1091F000000000000000000000000000000000006F
:1092000010B5054C237833B9044B13B10448AFF3C0
:1092100000800123237010BD5823002000000000AF
:10922000BC5F020008B5034B1BB103490348AFF311
:10923000008008BD000000005C230020BC5F02002D
:10924000A3F5803A704700BF174B002B08BF134BA4
:109250009D46FFF7F5FF00218B460F461348144A41
:10926000121A08F067FC0E4B002B00D098470D4BEC
:10927000002B00D098470020002104000D000D486D
:10928000002802D00C48AFF3008008F013FC200047
:10929000290003F05FFB08F0F9FB00BF00000800A5
:1092A00000000000000000000060002058230020A3
:1092B0008833002000000000000000000649074A33
:1092C000074B9B1A03DD043BC858D050FBDC02F06F
:1092D000ABFCFFF7B9FF00003C61020070220020E8
:1092E00058230020FEE7FEE7FEE7FEE7FEE7FEE785
:1092F000FEE7FEE7FEE7FEE77047000007B5044B18
:109300000093044A402300F032F803B05DF804FBF8
:1093100019930100752300202DE9F843884614466F
:10932000B2B10F4B0F4E0325002743F0010922462F
:1093300008EB0701002004F0D7FF0744241A48B9BE
:1093400033782BB14FF47A40C847013D02D13570D4
:10935000BDE8F88301233370002CE8D1F8E700BFA3
:10936000C043020074230020704704F0F1BFF0B541
:1093700095B01D46164608460C4602F05BFB1A9B4C
:109380000D93CDE9086500252B46082205A9204646
:109390000A958DF82C500C9502F069FB079B0293FF
:1093A000069B03939DF814308DF8115003F00302CF
:1093B000012A1DD1BDF81420059DC3F3C203C2F3D9
:1093C00083168DF81030B20008230EA9204602F053
:1093D0004EFBC5F3952508AB0093324602AB0EA9B0
:1093E000284600F037FB204602F028FB15B0F0BD00
:1093F000022AF8D1BDF81650C3F3C203C5F389158C
:109400008DF810300827082D2E4628BF08263B4629
:1094100032460EA9204602F02AFBAD1B08AB02AA79
:1094200031460EA8374400F079FB002DEBD1DAE786
:1094300008B5FFF79AFF0448042100F073FA034BC4
:1094400001225A7108BD00BF246102007022002071
:109450000378024613F0040006D003F0030001284D
:1094600003D0022809D0012070470B68128802330C
:10947000C2F3831213440B6070470B6852880233A7
:1094800003EB92130B60EEE72DE9F04F87B000235A
:109490000446861C0DF107000F4615468DF807306F
:1094A00000F0F4FD404A51683960936803F5807319
:1094B0005B1A924602F21C4702F5836902F21448D5
:1094C000B3421AD30020002D69D004F00F039B0192
:1094D00043F0050363F30F00DAF80430DAB2033225
:1094E0001E444AF822009DF80700CAF8046000F004
:1094F000F1FD012007B0BDE8F08F0121384601F0F1
:10950000D3FD484601F0E8FD404601F0E5FDDAF8FC
:1095100008000290C0B203300AEB800002A9FFF7F6
:1095200097FF029B30BBDAB20AEB8202D16803914B
:109530009A1C0133DBB20AEB83030292D3F80CB01E
:1095400001F00303012B22D0022B15D083464046A5
:1095500001F0C5FD10B1029BCAF8083059463846E3
:1095600001F0A2FDDAF80830DAF8042003F5807380
:109570009B1AA5E7D8B2CEE7BDF80E30C3F3891326
:1095800003334FEA1B4B02EB93030293DFE7BDF873
:109590000C30C3F383134FEA1B4B1344F5E7A405C8
:1095A00044F0060098E700BF88240020064B0748D7
:1095B00010B500221A7002F0F6F9044610B90448FA
:1095C00002F084FA204610BD882400203860020092
:1095D000FC43020030B50A4C71B10A4A0A49121B19
:1095E000D20800239A4201D1002030BD31F8235027
:1095F000854202D00133F5E7034654F83300F4E71F
:109600004C6002002461020054230020094B013900
:1096100003EBC000032909D8DFE801F00A020406C1
:1096200004207047007970474079704700207047E8
:10963000022070474C60020070470000034BD3E9E2
:109640000130C31A58425841704700BF8824002097
:109650002DE9F04186B0FFF7F1FF0546002840F004
:10966000E680744CC4F81804BFF34F8FA3680293CC
:10967000DBB2033304EB830002A9FFF7E9FE029B90
:1096800018B1D4F81824002A55D0DAB2991C013345
:1096900004EB8202DBB204EB8303D268DB68049341
:1096A00002F00303022B039202914FD1BDF80E305A
:1096B0006148C3F38917502F3E4628BF502666F3F2
:1096C0008F1306F10801ADF80E3002F084F905465B
:1096D000002800F0978002F0ADF9002303A90822CA
:1096E000284602F0BAF90299CB43DBB20133C9B282
:1096F0000331B6EB830F4FEA830804EB810122D9D3
:1097000008234246A6EB0806284602F0A6F9F6B260
:109710004A4908F108033246284602F09EF9029BA6
:10972000033703EB97070297D4F81834002B41D185
:10973000D4F8106451E062689A4299D8A260284631
:1097400006B0BDE8F08108233246E5E7012B59D188
:10975000BDF80C303848C3F38311062928BF062111
:1097600061F3891302318900ADF80C3002F033F94E
:109770000546002846D002F05DF90023082203A91F
:10978000284602F06AF90026BDF80C20C2F38312C5
:10979000B300964203F10803C6D202994A1CC9B22B
:1097A0000331029204EB81010422284602F055F9AC
:1097B0000136E9E7284602F041F9FFF73FFF80F064
:1097C0000105EDB2BBE7F3685B7923B13368294645
:1097D0001B6830469847F3681E68002EF3D1284670
:1097E00002F02CF90DF107008DF8076000F04EFC37
:1097F000D4F818340BB9029BA3609DF8070000F061
:1098000069FCDAE7D4F8104454B90D4B0D480E4901
:10981000C01AC008000440F0020000F05FF8CCE776
:10982000236820469B689847E3681C68ECE700259E
:1098300085E700BF882400203860020094240020BF
:109840004C60020084600200E44302002DE9F3470B
:1098500004460E46924601A9012218469946FFF792
:1098600013FE1C4F10B3019D4FF00008AA1CC84501
:1098700008EB020125D11848002101F0CEFB80F34E
:109880001000000440EA1440E4006B1C04F03804AB
:10989000DBB2EDB244F0010407EB8303033544EA85
:1098A000881444EA8624D86047F825403B781BB1E9
:1098B000FFF7CEFE0028FBD1FFF7BEFE02B0BDE8E9
:1098C000F087C9B207EB81015AF82830CB6008F164
:1098D0000108CCE788240020A428002000231A4691
:1098E000FFF7B4BF07B50123019201AAFFF7AEFF4E
:1098F00003B05DF804FB07B5CDE9002302236A46F7
:10990000FFF7A4FF03B05DF804FB1FB5CDE9012309
:10991000069B039301AA0323FFF798FF05B05DF8A8
:1099200004FB000030B5134AD2F81044034600206F
:10993000214649B9DC682071D2F8104454B9C2F804
:109940001034DB68196030BDC9680D7985420AD0D2
:109950000968EEE7E468D96824680C60D2F810243E
:10996000D2681360EFE701300A28E1D14FF0FF30F1
:10997000E9E700BF8824002038B5084A0123D2F85F
:10998000104413701D4604B938BDE3685D71236847
:1099900020465B689847E3681C68F4E78824002049
:1099A00010B5037A052B0C460FD0437A23B1084A31
:1099B0000849204601F0F8FB0749204601F0F4FB76
:1099C0002046BDE8104001F0E4BB002AF8D0F3E7E0
:1099D000084402000D4402002D44020073B5C38800
:1099E00004460D4633B1144A00921449144A2846DD
:1099F00001F0DAFB217A05291CD0637A4BB1A088EB
:109A0000FFF704FE0F4B104953F82020284601F0C1
:109A1000CBFB227A0D4BA08853F822600021FFF780
:109A2000D9FD0B4903463246284602B0BDE87040D6
:109A300001F0BABB02B070BD084402001844020035
:109A400010440200944402000D440200B844020095
:109A5000304402002DE9F04385B01F460C9D0023E1
:109A600095F80C902B7306460C46904629463846CE
:109A7000FFF7B4FFB8F1060F09D8DFE808F00412C9
:109A8000181F283340003146284601F08DFB002284
:109A900029463846FFF784FF85F80C9005B0BDE8ED
:109AA000F08322683146284601F07EFBEFE7D4E9D7
:109AB00000233146284601F077FBE8E7A3680093CE
:109AC0003146D4E90023284601F06EFBDFE7E36866
:109AD0000193A36800933146D4E90023284601F09E
:109AE00063FBD4E723690293E3680193A3680093BF
:109AF0003146D4E90023284601F056FBC7E76369E5
:109B0000039323690293E3680193A36800933146AA
:109B1000D4E90023284601F047FBB8E708292DE9DE
:109B2000F84F80460E4617461C463BD8002593F852
:109B30000C901D7319461046FFF750FFDFF88CA0FC
:109B4000DFF88CB0AE422FD918F8052059462046D0
:109B500001F02AFB0135082DF4D11949194DDFF820
:109B600074A0204601F020FB4FF0000B5E4522D987
:109B700018F80B207E2A1CD8134BD15C11F0970FDC
:109B800008BF2E225146204601F00EFB0BF1010BBF
:109B9000BBF1080FEAD1012221463846FFF700FF4A
:109BA00084F80C90BDE8F88F5146204601F0FCFA8D
:109BB000D0E72E22E6E72946204601F0F5FAE5E750
:109BC0004444020042440200755E02004044020028
:109BD0003A440200464402001FB50021039001AA46
:109BE00044F20100CDE9011100F004F805B05DF880
:109BF00004FB000010B572B6FFF7BEFEFFF728FDAC
:109C00000028FBD1104B114C1149E41AE40824043C
:109C100044F00100FFF762FE0E4B1B68DB0700D526
:109C200000BE0D4944F00200FFF758FEBFF34F8F0E
:109C30000A490B4BCA6802F4E0621343CB60BFF3DE
:109C40004F8F00BFFDE700BF4C6002008460020040
:109C5000D7440200F0ED00E0E344020000ED00E034
:109C60000400FA05D0E90223D1E90201994208BFB4
:109C700090422CBF012000207047000008B50B481F
:109C800000F069FB0A4B0B49D3E900231218D1E914
:109C9000000143F100038B4208BF824203D212F15C
:109CA000807243F100031046194608BD7822002057
:109CB00048290020C029002037B505460C460A482F
:109CC00001A901F0DEF860B10570446001A9064801
:109CD00001F001F918B1054800F042FB002003B083
:109CE00030BD0420FBE700BFAC2900207822002013
:109CF00073B5284B1E7804461EB90026304602B0C4
:109D000070BD0028F9D0FFF7B9FFD4E902239942CA
:109D100008BF904238D300230DF107008DF80730BB
:109D200000F0B4F923692BB94FF0FF324FF0FF3345
:109D3000C4E902239DF8070000F0CCF9D4E905300E
:109D4000984700250DF107008DF8075000F09EF9A7
:109D50002169B9B1D4E90223581C08BFB2F1FF3F11
:109D600005D0521843F10003C4E9022335469DF89B
:109D7000070000F0AFF9002DBFD00748214601F0E1
:109D8000C8FEBBE70D46F2E7013308BFB2F1FF3F63
:109D9000B3D0F2E7502900200045020013B5114B63
:109DA00011491868019008231048582201F056F80C
:109DB000044698B90E4A0F4801A900F0ADF90446CF
:109DC00060B90C48012100F0A7FA01230A4A0948AA
:109DD000194600F003FA094B01221A70204602B01E
:109DE00010BD00BFFA44020054290020AC29002015
:109DF000D19E010078220020FFFF7F005029002023
:109E000030B56AB103684FF0FF344FF0FF355A6147
:109E10004A1E5142C3E9024551411961002030BD3B
:109E20000720FCE7F7B5054600240DF107001746AB
:109E30000E468DF8074000F029F9D5E902230133D9
:109E400008BFB2F1FF3F07D1FFF718FF801941F1BA
:109E50000001C5E9020101249DF8070000F03AF96C
:109E60004CB12B69AF6103B12E6129460020FFF789
:109E700023FF03B0F0BD2046FBE737B505460024BD
:109E80000DF107008DF8074000F000F9D5E9022335
:109E9000013308BFB2F1FF3F06D04FF0FF324FF061
:109EA000FF33C5E9022301249DF8070000F012F9F1
:109EB0002CB129460120FFF7FFFE03B030BD20463C
:109EC000FBE70000014800F046BA00BF78220020FE
:109ED0002DE9F74F804600F028FA40B1634AD2E9F5
:109EE000003113F1807341F10001C2E9003100211A
:109EF000404600F02AFA38B15D4E336823B130682D
:109F0000FFF7F6FE002333600121404600F01DFA02
:109F100020B1FFF7B3FE574BC3E900015648DFF805
:109F2000509101A900F0E7FF4FF0FF364FF0FF37E7
:109F300098B9DFF848A14E4F504601F000FE0028C6
:109F400000F08780D0E90223591C08BFB2F1FF3F1F
:109F500034D1504601F0EDFDEEE70378012B20D01F
:109F6000022B09D1DFF814A1504601F0E2FD0028D0
:109F700077D0C0E90267F7E753B94168D1E9022316
:109F8000013308BFB2F1FF3F02D03C4801F0C1FDF0
:109F900001A9394800F0DAFF01A9374800F0ABFF0A
:109FA000C6E74168D9F80030994203D10023C9F8C7
:109FB0000030EDE7314801F0C5FDE9E7396891B1BE
:109FC0003968D1E902018B4208BF82422FD23B6837
:109FD000D3E90223013308BFB2F1FF3F03D0396850
:109FE000504601F096FD504601F0A3FDD0E9026B0A
:109FF0008146FFF743FE341A6BEB0105012C75F126
:10A00000000319DBB4F5350F14D3FFF75BFF1C4ACF
:10A0100002441C484FF49603002100F003F998B95C
:10A020003B6813B9404600F0D1F8C7F8009003B080
:10A03000BDE8F08F3246ECE71248002100F07AF9D3
:10A040004846FFF755FE01E00D28F9D000233B609C
:10A0500072E7074B1B68002BE9D1404600F0BAF8C5
:10A06000E5E7094B01221A7092E700BF482900205A
:10A07000C8290020C0290020AC290020004502008A
:10A08000FFFFB400782200205029002070B5EFF3C4
:10A09000108672B60C4A946801239CB993600B4BEE
:10A0A0000B4DD3F8801029401160C3F88050D3F8CD
:10A0B000841051604FF0FF32C3F88420047006B959
:10A0C00062B670BD0370FAE7F432002000E100E0F0
:10A0D000FC06FFBD10B5084B9A685AB150B9EFF3B2
:10A0E000108172B6054A1C6814605C685460986000
:10A0F00001B962B610BD00BFF432002000E100E0FB
:10A100000346405882B028B100225A505B58019350
:10A11000019B012002B0704738B5244C437944F8C4
:10A120002320234C234A121B234C04EBC303D208E5
:10A130001B79120433B142F002002049FFF7CEFB35
:10A14000082038BD03680D88C3F8085590F904301D
:10A150008978002B4FEA4111ADBF03F1604303F052
:10A160000F03174D03F56143B9BFC9B2E954C9B232
:10A1700083F8001390F90430002B08DB01215D09FE
:10A1800003F01F0301FA03F30E4941F82530437928
:10A1900004EBC301012544F833000D7142F00300C4
:10A1A0000949FFF79BFB0020CBE700BFD429002023
:10A1B0004C60020094600200CC2900200C45020093
:10A1C00014ED00E000E100E02E45020003680122EA
:10A1D0001A607047036801225A607047F7B5046837
:10A1E0004FF480358D40C4F808530468C4F84853D0
:10A1F00001F15004A4000668A4B200273751345975
:10A200000194019C046801F5A87122F07F4244F892
:10A2100021200268C2F8445313B10368C3F8045301
:10A2200003B0F0BD2DE9F34799464FF48038036839
:10A2300008FA01F8C3F848830368C3F8088322F0DA
:10A240007F4502680E46D2F8041502EB860206F13D
:10A250005007D2F84035C2F84015BF000268BFB2BF
:10A260004FF0000A42F807A05B1AD259009223F07F
:10A270007F43012B009A04460BD1264B4FF480609C
:10A2800043F001039847236843F807A0DB59019383
:10A29000019B2368D3F80475C3F84483EB1B23F0B8
:10A2A0007F43012B06F5A876236819D1013543F8C1
:10A2B0002650184B4FF4806043F001039847236801
:10A2C000D3F804359F4209D12368C3F84483236837
:10A2D0000020C3F8048302B0BDE8F0870D20FAE740
:10A2E00043F826502068D0F804156A1A013AC9F1DB
:10A2F000FF1322F07F4203F57F439342EED3002AFF
:10A30000E2D1013540F826502368D3F8043599424C
:10A31000D9E700BF4045020002680223C2F8443377
:10A3200011B10268C2F80433704700684FF48271BB
:10A33000FFF7E6BE4FF4803303FA01F10368C3F878
:10A3400048130368C3F80813704750318900006848
:10A3500089B2FFF7D5BE0368D3F804057047000043
:10A3600090F90430002B09DB5A09012103F01F0387
:10A3700001FA03F34032024941F82230704700BF2E
:10A3800000E100E0024B034A1B681068184700BF59
:10A39000D4290020CC29002070B5064E05460024A3
:10A3A00056F8043B0BB1284698470134042CF7D1EA
:10A3B00070BD00BFE4290020033080B240F2FE33BC
:10A3C000984230B51FD8134B1A783AB91C895D8969
:10A3D0002C440444A4B2B4F5806F0AD91A7DAAB9FA
:10A3E0009A8BDC8B2244024492B2B2F5806F0DD876
:10A3F00001220A801446142202FB04335A891044B5
:10A400005881002030BD48F20860FBE748F2066042
:10A41000F8E700BF182A00200B4A0C4B5188142083
:10A4200000FB0131CB6833B9042049681070012268
:10A43000074801F01DB907490523137002238B80DB
:10A44000012209680023F3E7FC290020182A0020D4
:10A4500040230020542A002007B50023054900931B
:10A46000054A09680548082301F06CF803B05DF857
:10A4700004FB00BF542A0020544502004023002062
:10A4800007B5002301460093034A0448082301F05E
:10A4900059F803B05DF804FB4C450200402300204E
:10A4A00013B500230C4600930146084A08480423CC
:10A4B00001F048F838B90749142303FB04140123B9
:10A4C000237402B010BD48F20D60FAE7484502005F
:10A4D00040230020182A002037B50A480A4B42685A
:10A4E0009C88196853880325033305709BB20020AC
:10A4F00000909B0001EB8401044801F023F803B0B5
:10A5000030BD00BFFC290020542A00204023002039
:10A5100010B50146044800F0B4FC1C22044600219A
:10A5200007F008FB204610BD402A00204388033373
:10A5300000EB830399420BD382884FF6FF739A4254
:10A5400008D0038833B18068431C58425841704793
:10A55000022070470120704738B5144B14220D4675
:10A5600002FB00302B68446804F58051A3B15C887D
:10A57000033403EB84048C4215D22368013312D0D8
:10A580002046FFF7D3FF012808D002280BD000286F
:10A59000F1D12C60012038BD0834ECE76388033327
:10A5A00004EB8304E7E70020F5E700BF182A00204A
:10A5B00073B5426804460D466AB3244BD9688A4293
:10A5C00029D31B699A4226D812F0030323D12049CC
:10A5D0000089098988421ED12068916888421AD171
:10A5E0001C494868824203D900F5805082420DD34D
:10A5F00089698A420CD901F580518A4208D2012228
:10A600002A80B3FA83F0400902B070BD1A46F7E71A
:10A6100048F20963F5E700232B801E46019628883F
:10A6200001A9FFF799FF30B92B8801339BB2012BA9
:10A630002B80F3D9E8E7019B226899689142EED11B
:10A640006360034B1B892381DEE700BF40230020AA
:10A65000FC290020182A00202DE9F8431C461F4B36
:10A660001B7806460F461546002B31D0002A32D003
:10A67000002C30D0DFF86C804FF01409A388012B38
:10A6800002D948F2096021E009FB03F318F803300E
:10A690002BB9A0882146FFF75FFF20B92060A3886F
:10A6A0000133A380EAE723681EB19988328891427A
:10A6B000EFD11FB119883A889142EAD19B682B608B
:10A6C00023686B60064B1B892B810020BDE8F88353
:10A6D00048F20160FAE748F20460F7E7F429002045
:10A6E000FC290020182A002008B5074B5888191D9E
:10A6F000FFF732FF18B1BDE80840FFF7EDBEBDE837
:10A700000840FFF789BE00BFFC2900202DE9F04F6B
:10A71000A24FDFF8AC9289B00646B8463B6823B931
:10A720009F48494600F0E7FB3860D8F80050297888
:10A730004B1E052B07D8DFE813F0220077007700C7
:10A740000A010A01640148F20E641422002103A8E0
:10A7500007F0F0F941F61D539C4208BF0024D8F8D9
:10A76000003004941A78013A052A00F2F681DFE8F5
:10A7700012F0E201E6010602160222022C022EB1BC
:10A78000884B00225A604FF40644DEE72B79032BF6
:10A790001DD8DFE803F015022B3683490B78022B16
:10A7A00008461AD00B7D022B4FF0010317D114225B
:10A7B0005343C2180020C8545068FFF761FE03E0FD
:10A7C00001232B71FFF748FE002800F0BA80754B7B
:10A7D00000225A6048F20D64B7E70023E7E7714AA8
:10A7E00013700023536041F61D54AEE76F49704863
:10A7F000002302222B718A800968012200F038FFB1
:10A80000E2E76C4B694A5988106800262E711423C0
:10A81000654D4B43E918EE544C68146094884860C9
:10A820000C8102219180C8E7B5F814A0AA7DDFF859
:10A8300078B11423AEB1022A06D903FB0AB3EA8821
:10A84000198903320A441A81142303FB0ABAEB88DC
:10A85000BAF80A20C3F57F43FD331344AAF80A303F
:10A8600091E703FB0AB318895C6804EB8004062AAD
:10A870006AD8DFE802F0284F37451E5B040041F636
:10A880001D54AB7D022B07D9142202FB0AB2EB88C0
:10A89000118903330B441381142303FB0ABAEB8899
:10A8A000BAF80A20C3F57F43FD331344AAF80A30EF
:10A8B0004BE74148414900234360AB690360FFF720
:10A8C00077FE00285BD00223AB750023009304239E
:10A8D000EA182146364800F035FE002831D048F20B
:10A8E0000D64CEE72B69002B14BF03230123AB7546
:10A8F0000023009305F10C02042304F10801E9E7A9
:10A900000123AB750022EB8800922A699B0004F1B9
:10A910000C01DFE703290CBF05230623AB750023D9
:10A920000093042305F10802E118D3E70623AB7571
:10A93000224B1988204B5868FFF7B2FD04460028C7
:10A940009FD109B0BDE8F08F48F20E6499E7002E60
:10A950007FF419AF2B79012B34D0022B3FF443AF96
:10A96000002B7FF4F0AE02232B71CDE904660DF1CC
:10A970000A01EB68039303A8FFF71AFE10B948F227
:10A980000964E2E60498BDF80A108388EB80038826
:10A990002B81FFF785FD044629E000BF142A002023
:10A9A000402A0020F4290020182A0020542A0020E0
:10A9B00040230020FC290020D82900205C2A002008
:10A9C0000C2A0020DFF81CA203AA53463146A81D1A
:10A9D000FFF742FE044670B9BAF804100498FFF776
:10A9E0005FFD044648F209639C423FF4FCAE002C34
:10A9F0007FF4ABAEA5E708223146504607F09AF83F
:10AA0000F0E7002E7FF4BFAE714B1A7BB2B11E731C
:10AA10001A78013A062A3FF696AE01A151F822F0C3
:10AA2000CBAA0100F1AA01000FAB010015AB010098
:10AA300047A701001BAB01002DAB01001A78072AC4
:10AA4000E6D801A151F822F069AA010011AA01007B
:10AA500011AA01008FAA0100A3AA0100C7AA010040
:10AA6000C7AA01008BAA01001A895A4901321A812A
:10AA700000225A801A730A78B2FA82F252099A7244
:10AA80000A7DB2FA82F25209DA72012207E05249D3
:10AA900058688A884088033202448A8002221A70E9
:10AAA000B6E74C4C5A884C49142505FB024208680D
:10AAB000546850608888108102200C6088800021D2
:10AAC00011740622EBE70722E9E79A7A32B9DA7ABB
:10AAD0008AB900221A705A805A6084E63D490022E1
:10AAE0009A72CA68002AF2D1097C0029EFD05A80F4
:10AAF000FFF7FAFD4FE70022DA72364A116A0029A1
:10AB0000E7D192F82420002AE3D00122EFE7FFF7F3
:10AB1000E3FC40E7FFF780FC3DE72E4A5B88142109
:10AB200001FB03235868FFF7ABFC34E700225A60AF
:10AB3000FFF792FC2FE700238DF80C300DE0012287
:10AB40008DF80C201A89ADF818209A88ADF81A20D3
:10AB5000DB68059300238DF81C3003A8FFF71CFC6D
:10AB6000002649461D48C8F8006000F0EFF91C486F
:10AB7000012100F0A5FA00287FF4D0ADE1E6022221
:10AB80008DF80C201A89ADF818209A88ADF81A2093
:10AB9000DA6805929B7D9A1F53425341DBE70322FB
:10ABA0008DF80C20DA88ADF818201A89ADF81A2033
:10ABB000DB680593D1E704228DF80C20DB88ADF823
:10ABC00018300023ADF81A30F3E70523B4E700BFCF
:10ABD000FC290020182A0020542A0020402A0020A6
:10ABE000502A0020602A00204068FFF78FBD000037
:10ABF00008B50548012100F04BFA18B9BDE8084036
:10AC0000FFF784BD08BD00BF502A00202DE9F341A5
:10AC10009846364B1B7806460D46002B5AD0002925
:10AC20005BD009884FF6FF73994259D06B88002B8F
:10AC300056D06B689B0756D14AB92F890DF1020196
:10AC40003846FFF7B9FB30B102B0BDE8F081138898
:10AC50005788ADF8023001A8FFF75AFC044660B9E6
:10AC6000BDF80230224A142101FB0323588903381E
:10AC7000C01B588148F20760E6E780F80080002397
:10AC80008375BDF8023083826B6803610121194826
:10AC900000F00AFAE0602B8823816B88A380B8F16A
:10ACA000030F04BF0423A375E78004BF3368A361C7
:10ACB00000251148658101A900F00DF936B17560D4
:10ACC000E36833600D4BB5721B893381FFF790FF4A
:10ACD0000020B9E748F20160B6E748F20460B3E744
:10ACE00048F20360B0E748F20260ADE7F4290020C3
:10ACF000182A0020102A0020402A0020FC290020C9
:10AD000073B50D460446C8B1C1B10DF10601FFF798
:10AD10004FFCB0B10C4BBDF806006668142202FB74
:10AD2000003001210C3000F0BFF92E6063680C3355
:10AD30006B600123A372002002B070BD48F2046072
:10AD4000FAE748F20960F7E7182A002013B504462D
:10AD5000A8B10DF10601FFF72BFC98B10C4ABDF824
:10AD60000630142101FB0323DA6872B1A27A62B1C2
:10AD7000DA680020013ADA60A07202B010BD48F231
:10AD80000460FAE748F20960F7E748F20560F4E783
:10AD9000182A002002230022FFF738BF18B103232E
:10ADA0000022FFF733BF48F20460704713B5114B20
:10ADB0001B780446ABB14FF6FF73984214D001A83C
:10ADC000FFF7A6FB98B10523037001230371C4802C
:10ADD00001A9094800F07FF8FFF70AFF002002B040
:10ADE00010BD48F20160FAE748F20360F7E748F265
:10ADF0000760F4E7F4290020402A002007B5ADF8E9
:10AE00000600ADF804100DF1060001A9FFF724FCBF
:10AE100003B05DF804FB07B51346ADF806000A461B
:10AE200000200DF10601FFF717FC03B05DF804FBED
:10AE300007B51346ADF806000A460DF106000021DD
:10AE4000FFF70AFC03B05DF804FB20B119B10368F9
:10AE50000B600020704748F20460704730B505462B
:10AE600059B1B2FBF3F403FB1424A0B238B9C5E91D
:10AE70000010A860AA81EB8130BD0E20FCE70920FC
:10AE8000FAE737B550E8013F9DB2C489254484896B
:10AE9000A54228BF2D1B0489A54202BFBFF32F8FF7
:10AEA000002207E0C5EA030540E80154002CE9D17F
:10AEB0004FF001028DF803200193019B9DF80320C0
:10AEC0000B6002F0FF0322B10B880068184403B046
:10AED00030BD1846FBE70A884B889A4209D150E8F2
:10AEE000012FC2EA024240E80123002BF7D10120E2
:10AEF00070470020704737B550E8023F1FFAA3F5AE
:10AF0000C488A54202BFBFF32F8F00220DE0C48981
:10AF100025448489A54228BF2D1BC3EA054540E886
:10AF20000254002CE8D14FF001028DF80320019368
:10AF3000019B9DF803200B6002F0FF0322B14B88B8
:10AF40000068184403B030BD1846FBE70A884B88F8
:10AF50009A4209D150E8022FC2EA224240E8022375
:10AF6000002BF7D1012070470020704701F01F022D
:10AF70004B090121914000EB830000F065B84B09BB
:10AF800010B501F01F040121A14000EB830000F087
:10AF90004FF8E04000F0010010BD01F01F03012256
:10AFA0009A404B0900EB8300D14300F065B84B0990
:10AFB00001F01F0150F82300C84000F00100704765
:10AFC0002DE9F0474F1E7F0980460E4601370025C8
:10AFD00058F8254008EB8509E44394FAA4F4B4FA40
:10AFE00084F44FEA451A202C06D10135AF42EFD840
:10AFF00034462046BDE8F0875444A642F5D92146A0
:10B000004046FFF7BCFF0028F3D0D9F80040E443E6
:10B0100094FAA4F4B4FA84F4E5E710B5034653E8CF
:10B02000000F0A4643E8002494F0000FF7D110BD4A
:10B0300010B5034653E8000F40EA010243E800243C
:10B0400094F0000FF6D110BD10B5034653E8002F61
:10B0500042EA010043E8000494F0000FF6D110BD6D
:10B0600010B5034653E8000F00EA010243E800244C
:10B0700094F0000FF6D110BD10B5034653E8002F31
:10B0800002EA010043E8000494F0000FF6D110BD7D
:10B0900010B5034653E8000F00EB010243E800241B
:10B0A00094F0000FF6D110BD10B5034653E8002F01
:10B0B00002EB010043E8000494F0000FF6D110BD4C
:10B0C00010B5034653E8002FA2EB010043E800044B
:10B0D00094F0000FF6D110BD0121FFF7B5BF00219C
:10B0E000FFF7BEBF10B590B1D0E9012301689B1AEC
:10B0F000DBB20A60013BDBB2FF2B026802D1002009
:10B10000107110BD11684C1C14600B70F2E70E201A
:10B11000F7E737B5044600250DF107008DF8075015
:10B12000FEF7B4FF2268616813688B4210D9591E7C
:10B13000116013F8015C228AE36802FB053522687E
:10B14000A36811685B1A1179DBB2994238BF137199
:10B150009DF80700FEF7BEFF284603B030BD37B5A7
:10B16000054600230DF107000C468DF80730FEF769
:10B170008DFF2A681368591C1160E968641A298ACE
:10B18000B4FBF1F41C709DF80700FEF7A3FF03B0B9
:10B1900030BD10B5826804462AB143690168006970
:10B1A00098470023A36010BD0EB403B5039921B1E5
:10B1B00004AB01AA019300F077F802B05DF804EB4C
:10B1C00003B070470A2938B504460D4602D10D2157
:10B1D000FFF7F8FFA3682268591CA160D554D4E991
:10B1E00001329A4204D32046BDE83840FFF7D1BF70
:10B1F00038BD00002DE9F84F9846DDE90A431546B1
:10B2000082460F460A464FF00109AA420FD2C145B5
:10B2100038BFC14613F0010B01D16CB900240126DF
:10B22000B8F1010F1BD908F1FF386E43F8E709F1B7
:10B230000109B2FBF5F2E8E79B070ED5B8F1000F64
:10B240000CBF30262026A145E9D2013C31465046AC
:10B25000FFF7B8FF002CF6D1E0E72026F3E7B7FBB5
:10B26000F6F39D42E1D9DFF83C80B7FBF6F3504698
:10B2700018F8031006FB1377FFF7A4FF3346AB4221
:10B28000B6FBF5F6F1D2BBF1000F02D00CB1A1452F
:10B2900001D3BDE8F88F20215046013CFFF792FF13
:10B2A000F4E700BF5C4502002DE9F74F054617465D
:10B2B0008846002900F0428118F8011B49B92B7B10
:10B2C000002B00F03B81284603B0BDE8F04FFFF7AC
:10B2D00060BF252940F0B780002698F800302D2B5C
:10B2E000424608F1010823D0302B24D02B2B25D047
:10B2F00000242A2B02F1010123D13B681A1D3A6078
:10B300001B680A461C4413782E2B26D101324FF0BD
:10B31000000A104610F8011BA1F1300CBCF1090F16
:10B320001DD80A2303FB0A13A3F1300A0246F0E7F3
:10B3300046F00106D1E746F00206CEE746F00406E5
:10B34000CBE711F8013CA3F130000928DBD80A2231
:10B3500002FB0434303C0A46CBE74FF0000A12F8F7
:10B36000011B01F0FB0068289046F8D0782909D825
:10B370006F290CD8632962D022D8252963D0582997
:10B3800000F0888098F80030002B95D197E770394D
:10B390000829F7D801A353F821F000BF17B5010021
:10B3A00085B3010085B30100A5B4010085B3010098
:10B3B00083B4010085B3010085B3010095B4010099
:10B3C000642901D06929DDD13A68111D3960D2F8AC
:10B3D000009089EAE972A2EBE9724FF0010B092AA9
:10B3E00035DCD34538BFD3462CB1B9F1000F01DBB2
:10B3F000720700D5013CB30702D5BAF1000F03D0A4
:10B40000F00701D44CBB0024B9F1000F2DDAC9F1CB
:10B4100000092D212846FFF7D5FE06F00302022A77
:10B4200004D1BAF1000F01D11CBB0024CDE90046C4
:10B4300053460A2249462846FFF7DCFEA2E73B684E
:10B440001A1D3A6019782846FFF7BCFE9AE70A23CE
:10B450000BF1010BB2FBF3F2C1E7A345D4D22021DB
:10B460002846013CFFF7AEFECCE77107D5D52B216E
:10B47000D0E7A345DAD230212846013CFFF7A2FEEF
:10B48000D2E73968CDE900460A1D3A6053460A22E0
:10B490000968D0E739680A1D3A60CDE9004653468D
:10B4A0001022F5E73B681A1D3A6016F00106D3F842
:10B4B000009028D1B9F1000F03D0484606F06AFB8E
:10B4C0000646B44200D904BB09F1FF3919F8011F3F
:10B4D00000293FF457AF2846FFF774FEF6E72846E9
:10B4E0000136FFF76FFE19F806100029F7D1A642C2
:10B4F000BFF448AF002C3FF445AF20212846013C63
:10B50000FFF760FEF3E70026EDE720212846013C27
:10B51000FFF758FED5E73B681A1D3A6030212846F0
:10B520001C68FFF74FFE78212846FFF74BFE0022EC
:10B530000823CDE90032214610227CE703B0BDE8A4
:10B54000F08F00BF2DE9F34188B93D4B3D483E4A9D
:10B55000C01AC0080E243D4B009400043C4940F042
:10B560000100FEF7D2F9204602B0BDE8F0814AB9E9
:10B57000334B3448374AC01AC0080E24334B00946A
:10B580000004EBE7D0F800E0BEF1000F09D12C4B2E
:10B590002C48314AC01AC00808242C4B00940004DF
:10B5A000DCE74BB9264B27482C4AC01AC0080924AF
:10B5B000264B00940004D1E74768D7F80480B3FB1A
:10B5C000F8F708FB17374FB11D4B1E48244AC01A25
:10B5D000C00809241D4B00940004BFE78F0709D061
:10B5E000174B18481F4AC01AC0081024174B009464
:10B5F0000004B3E712F0030F09D0114B11481A4AA7
:10B60000C01AC0081024114B00940004A6E7C768B4
:10B61000B9420BD305694C1E1C44AC4206D8DEF877
:10B620000C40A44602B0BDE8F0416047044B054819
:10B630000E4AC01AC0081024044B009400048DE781
:10B640004C600200AC6002006C4502000247020040
:10B6500071450200EE4502009A450200AD45020028
:10B66000F44502001E46020036460200594602001A
:10B67000F7B580B92A4B2B482B4AC01AC0080E24B4
:10B680002A4B009400042A4940F00100FEF73DF9DE
:10B69000204603B0F0BDD0F800C0BCF1000F09D1C6
:10B6A0001F4B2048234AC01AC00808241F4B00948F
:10B6B0000004E8E74AB91A4B1A481F4AC01AC008E2
:10B6C00009241A4B00940004DDE74768D7F800E02E
:10B6D0000EF1FF370F4209D0114B1248174AC01A1A
:10B6E000C0081024114B00940004CCE7C768B9428D
:10B6F0000CD304694D1E0EFB0255A54206D8DCF89A
:10B700001040A44603B0BDE8F0406047044B054834
:10B710000B4AC01AC0081024044B00940004B2E77E
:10B720004C600200AC6002006C450200154702004C
:10B73000714502009A450200AD45020080460200B4
:10B74000A646020029DF704728DF704770B50668FB
:10B75000B36886B004460D4673B1142200216846D2
:10B7600006F0E8F9A36805932379019533B1012B1D
:10B770000ED0B3686846984706B070BD01238DF8B7
:10B78000003023690293E368039363690493F0E74D
:10B7900002238DF80030E3681B030293F5E70000F5
:10B7A000034B187A0122B0FA80F05A7440097047AE
:10B7B000782A002070B5244C244E237A25463BB9C4
:10B7C00023492448FFF797FB306008B9606070BDDB
:10B7D000022334682B72237973B1012B25D02046C4
:10B7E0000321FFF7B3FF00232B726B60BDE87040AD
:10B7F00017491848FFF7AABBD4E90523D21AB2F5B6
:10B80000805FD4E9031028BF4FF480529208012AC8
:10B8100038BF012219441844FFF794FF014650B184
:10B820001128DCD101232B72D1E7D4E9030318449A
:10B83000FFF78AFFF2E72B7C002BC8D1BDE87040F0
:10B84000022000F009B800BF782A0020902A0020CA
:10B850008C2A0020682A002038B5831E012B45D889
:10B86000234C237A002B41D0022B09D1032830D05E
:10B87000204B00221B68E2601A793AB1012A22D0DB
:10B88000637C7BBBBDE83840FFF794BFD3E905126A
:10B890008D1AB5F5805F94BF521902F580529A61F6
:10B8A0009142EDD102284FF0000308BF19462372E0
:10B8B000104B18BF0D211868FFF748FF0E490F48BD
:10B8C000FFF744FBDCE71A6901321A615B699A42AF
:10B8D000E7E7E3680133082B01D8E360D0E70023F2
:10B8E000E360DFE7BDE8384005F036BF38BD00BF94
:10B8F000782A0020902A00208C2A0020682A002024
:10B9000000F0FD03012B08D1044B00225A74421EA3
:10B91000504250411874FFF74DBF7047782A0020FD
:10B920002DE9F84FB0F806A04579D2F800B09DF89F
:10B9300028900AFB05F5043D88460BEB0301A9425C
:10B9400003F1040488BFA5EB030BB4FBFAF607462A
:10B950000AFB1644C2F800B04EB9AAEB04055D45D7
:10B9600028BF5D46BBF1000F04D1BDE8F88F3F68EA
:10B97000013EF1E7043408EB06003C442A46B9F1E5
:10B98000000F0DD02146ABEB050B06F0C5F8DA45EC
:10B990002E443F6855464FF0000428BF5D46E1E75E
:10B9A00001462046EFE7FFF79DBBF8B54679014613
:10B9B000721E0546002393422D6803D30024A6423D
:10B9C00002D8F8BD0133F6E70F682846FFF7C7FB3A
:10B9D00001343946F3E72DE9F843CD1C068A0746C2
:10B9E000FFF797FB043E35440446B5FBF6F5F0B18E
:10B9F0004FF48073EDB28380C680013D07608146BD
:10BA00004FF00008A84512D23846FFF782FB0646E1
:10BA100048B163790133637108F10108C9F8000086
:10BA200007608146EEE72046FFF7BFFF3446204619
:10BA3000BDE8F88301210430FFF736BB10B50121C2
:10BA400004460430FFF73CFB10F0FF0F04D1204602
:10BA5000BDE81040FFF7A9BF10BD1FB5039200223B
:10BA6000009203AAFFF75CFF05B05DF804FB1FB569
:10BA700003920122009203AAFFF752FF05B05DF87E
:10BA800004FB41DF70470000064B10B500241C701A
:10BA9000054B1C60BFF35F8F0449054800F024F894
:10BAA000204610BD9C2A0020A02A00203447020016
:10BAB000942A002008B505F05FFE18B1BDE80840E3
:10BAC000FFF7DFBF20BF40BF20BF08BD8268002353
:10BAD000936082681361826853618268D360826870
:10BAE000536082681360704701600B6843604A6866
:10BAF000934204BF002343607047436843B1026828
:10BB000091680B4443605268934204BF0023436032
:10BB1000704770B5446806460D46206818B1B36892
:10BB20002946984718B923682B60256070BD2468A2
:10BB3000F3E74368186808B102681A607047436801
:10BB4000186870474368186800B97047884203D185
:10BB500002681A600120704703460068F4E700009D
:10BB600010B50D49A1F59472914201D800200FE063
:10BB70008C1AE30F03EBE4035B1002EBC30452F8EF
:10BB80003330834205D802D204F10802ECE7606842
:10BB900010BD2146E8E700BF404C020008B5FFF7A2
:10BBA000DFFF024B002808BF184608BD034B020008
:10BBB000BFF34F8F0549064BCA6802F4E062134396
:10BBC000CB60BFF34F8F00BFFDE700BF00ED00E08B
:10BBD0000400FA05054B1868082804D0A0F10E03EC
:10BBE0005842584170470120704700BF3001001093
:10BBF000064B1B68082B06D1054B1B68052B02D88A
:10BC0000044AD05C70470020704700BF300100102C
:10BC100034010010464C0200024AD2F80034002BD6
:10BC2000FBD0704700E0014010B5704B1B680E2B35
:10BC300005D16F4B6F4A1B68C3F342331360FFF7A4
:10BC4000C9FF40B14FF080430022C3F80C21C3F874
:10BC50001021C3F83825FFF7BDFF002846D04FF06C
:10BC60008052654BD2F80414C3F82015D2F808149A
:10BC7000C3F82415D2F80C14C3F82815D2F8101400
:10BC8000C3F82C15D2F81414C3F83015D2F81814D0
:10BC9000C3F83415D2F81C14C3F84015D2F8201498
:10BCA000C3F84415D2F82414C3F84815D2F8281460
:10BCB000C3F84C15D2F82C14C3F85015D2F8301430
:10BCC000C3F85415D2F83414C3F86015D2F83814F8
:10BCD000C3F86415D2F83C14C3F86815D2F84014C0
:10BCE000C3F86C15D2F84424C3F87025FFF780FF21
:10BCF00010B1424B424A1A60FFF77AFF18B1414B2C
:10BD0000FB22C3F81825FFF773FF48B13E493F4BAC
:10BD10000A681B6822F00F0203F00F0313430B6045
:10BD2000FFF766FF18B13A4B4FF400721A60FFF745
:10BD300051FF48B14FF08043D3F80024D20744BFED
:10BD40006FF00102C3F80024284B1A680E2A01BFC5
:10BD50002D490A6842F00F020A601B68082B0ED1B9
:10BD60002C4B1B68052B02D82B4AD35C3BB14FF000
:10BD70001023D3F808224FF08043C3F858254FF022
:10BD80001023D3F80022002A03DBD3F80432002B5F
:10BD900017DA22490123C1F80435FFF73DFF4FF0C0
:10BDA00010201224C0F80042FFF736FFC0F804420A
:10BDB000FFF732FF0023C1F80435FFF72DFFFFF72F
:10BDC000F7FE174C2368DB070CD514490123C1F893
:10BDD0000435FFF721FF00202060FFF71DFFC1F8A9
:10BDE0000405EAE70F4B104A1A6010BD300100103D
:10BDF000440200103C05004000C000408C5600404A
:10BE00004881030000F00040E40E0040580200109A
:10BE10004096024034010010404C020000E0014016
:10BE20000C120010802200200090D00338B5074C7F
:10BE3000051E04F1080318BF1C4623682BB11A68BD
:10BE400022605B6828469847F7E738BDAC2A002097
:10BE500020B9054B01225A70FFF7E8BF012802D133
:10BE6000014A9070F8E77047A42A002020B9034BDC
:10BE700001225A70FFF7DABF704700BFA42A0020E2
:10BE800038B50E4C2378B3B90D486360A3602361C5
:10BE9000E36000F073F8054605F06EFC08B900F0A9
:10BEA00079F801232370074BD3F800340BB1012339
:10BEB000A370284638BD8525F5E700BFA42A0020D9
:10BEC00051BE01000000014037B50D4C00230DF1BB
:10BED00007008DF80730FEF7D9F8E368013BE3600F
:10BEE000E36833B9074BD3F8005415B900F064F890
:10BEF000A5709DF80700FEF7EDF803B030BD00BF58
:10BF0000A42A002000000140012813B50CD003280A
:10BF100020D038B9124B0122C3F88020BFF34F8FD5
:10BF2000BFF36F8F02B010BD0E4C00230DF1070060
:10BF30008DF80730FEF7AAF823780BB9FFF7A0FFBA
:10BF4000E3689DF807000133E3600123A370FEF767
:10BF5000C1F8E7E700F01EF8FFF7B6FFE2E700BF21
:10BF600000E100E0A42A002000F18040002382B01C
:10BF7000036003680193019B02B07047044B0246C3
:10BF8000187918B91A6001221A7170478520704714
:10BF9000B82A0020074B1A68D20704D4C02283F8BD
:10BFA000002301221A604FF080430122C3F81825B4
:10BFB000704700BF00E100E04FF0804208B5022367
:10BFC000C2F808334FF48270FFF7CEFF034B012114
:10BFD0001960D2F81834DB03FBD408BD0C00004014
:10BFE00010B5114B1B6863B14FF48070FFF7BCFFB5
:10BFF0004FF080430122C3F808230C4B00201B683C
:10C0000098470B4B1B6873B14FF48270FFF7ACFF7E
:10C010004FF080430222C3F80823044BBDE81040D0
:10C020001B680120184710BD00010040B82A0020FD
:10C030000401004000F1804000F5C040002382B0C0
:10C04000036003680193019B02B07047800000F118
:10C05000A040D0F8002722F44032C0F80027D0F8E2
:10C06000003743EA0143C0F8003770472DE9F74F26
:10C0700000244E4D01944FF48072012102F180435F
:10C0800003F5C04390B21B68012B06D1D5F80433E9
:10C090000B4202D0FFF7CEFF0C430432B2F5907F83
:10C0A0004FEA4101EAD1424B1B68012B0CD14FF4FE
:10C0B000BE70FFF7BFFF4FF0A04344F00044D3F839
:10C0C00020250192C3F8202514F0FF0F1AD0394F14
:10C0D00000250126344210D0AB0003F1804303F564
:10C0E000C043D3F81005D3F8101557F8253023B105
:10C0F000C1F30141C0F3042098470135082D4FEAF0
:10C100004606E7D1002C48DA2A4D4FF0A0482A4EC7
:10C110004FF00009012716F9013B5A1C31D0C3F337
:10C12000C20202A90A44DCB212F8042C03F03F0A4E
:10C1300003F0070307FA03F31A4222D00AF5E0736B
:10C14000504658F82330C3F3014BBBF1020F0CBF2C
:10C1500003210221FFF77AFF07FA0AF3C8F8203516
:10C1600005EB0A0393F9303055F823304BB1A109A0
:10C17000032904D0BBF1020F12D1012901D150468D
:10C18000984709F10109B9F1040FC4D1D8F8203555
:10C190000193C8F82035002BB9D103B0BDE8F08F6A
:10C1A000BBF1030FEDD10229E8E700BF00600040BA
:10C1B0007C610040C02A0020102B0020014B1B682E
:10C1C000184700BF1C2B00200E4B984237B50C4679
:10C1D00002D0002003B030BD00230DF107008DF820
:10C1E0000730FDF753FF084B1D7915B901221C607C
:10C1F0001A719DF80700FDF76DFF002DE9D01120A1
:10C20000E8E700BF002000401C2B0020032811D8C5
:10C21000012A0AD101290FD100F10E02D2B20D4B31
:10C2200000EB40001A54002070470129F7D0022982
:10C2300004D049B1072070470022F8E7054B00EB16
:10C24000400018444270EEE7024B00EB40001844F7
:10C250008270E8E7242B002008B50122022100208B
:10C26000FFF7D4FF08B1072810D1072202210120CF
:10C27000FFF7CCFF08B1072808D100210A220846A1
:10C28000FFF7C4FF10B1072808BF002008BD000059
:10C2900010B50388102B02D0112B1ED010BD1A4CE4
:10C2A0002168B1B901220846FFF7B0FF08B107289D
:10C2B00024D1072202210120FFF7A8FF08B1072897
:10C2C0001CD1042202210020FFF7A0FF08B107289B
:10C2D00014D1236801332360E0E70B4A1368013B64
:10C2E0001360002BDAD1FFF7B7FF0028D6D0074B39
:10C2F0001B68002BD2D0BDE810401847034B1B68C9
:10C30000002BE6D09847E4E7342B0020302B0020A8
:10C310006DDF704772DF704773DF704774DF7047FF
:10C3200076DF70477ADF70477CDF70477FDF7047CA
:10C330008FDF7047B1DF7047114B124A197801F057
:10C34000FF03C1B113780133DBB20A2B13700ED98E
:10C350000D490E480B680068013383420B6004D31B
:10C360000B4B0120187000230B6000231370094B46
:10C3700001221A7070471370034A1360F7E700BF79
:10C38000C2220020002C00203C2B00208422002010
:10C39000402B0020392B0020FDF71EBC08B5054BB3
:10C3A00001211878FFF7B8FF18B1BDE80840FDF784
:10C3B00013BC08BD982200200B4B1A780B4B62B1BE
:10C3C00002221A701A780A480A4B0B49C01AC00890
:10C3D000000440F00300FDF785BA084A1278002AED
:10C3E000F0D00122EDE700BF382B0020C32200204F
:10C3F000846002004C6002006E4C0200AE2D0020F2
:10C400001FB5112310488DF8043005F0C3FB0E4909
:10C4100082B201A8FFF788FF08B1FDF7DDFB082213
:10C420000DEB0200002105F085FB084A4FF0C873B0
:10C4300002A8CDE90223FFF775FF08B1FDF7CCFB99
:10C4400005B05DF804FB00BF7D4C02005000A00069
:10C4500030B5A5B004463C22002106A805F06AFBD1
:10C4600002238DF8183040F20163ADF81A302C4BDE
:10C47000002C40D04AF6134293F82A30ADF8002041
:10C4800000213C2215A88DF8023005F053FB012352
:10C49000ADF86430CDF868D04FF4A075214C224639
:10C4A00006A852F8041B01F0CFFF08B1FDF794FB7A
:10C4B0001D4AA16815A801F0C7FF08B1FDF78CFB64
:10C4C00018220021684605F035FB00230122ADF853
:10C4D0000C308DF8002001931249144802954FF456
:10C4E00080736A46ADF81430FFF714FF08B1FDF70A
:10C4F00073FB25B030BD4AF6124293F82A30ADF8EE
:10C50000002021463C2215A88DF8023005F012FBD0
:10C510000123ADF86430CDF868D04FF4A065BDE7D5
:10C52000AC2B00208822002094220020982200209A
:10C5300013B50388212B04465FD007D8112B31D0C7
:10C54000132B52D0102B0CD002B010BD522B5CD04C
:10C55000562B01D03B2BF7D1A0881321FFF7E0FE2B
:10C560001BE02E4B2E482F49C01AC008000440F093
:10C570000300FDF7B3F92C4BA1882C4801221A7057
:10C580002B4A002313702B4A13702B4A13802B4A1B
:10C5900013702B4B198003F0FFFB0028D4D0FDF75C
:10C5A0001BFBD1E71D4B1E482649C01AC0080004DA
:10C5B00040F00300FDF792F91B4B01221A701C4A50
:10C5C000002313701B4A13701B4A13801B4A1370FD
:10C5D0001B4B4FF6FF721A80FFF712FF1A4B1878A9
:10C5E000FFF736FFFFF7DAFEAEE7154800231A46DD
:10C5F00085210088FFF79AFECFE7002301A98088F4
:10C60000ADF80430FFF794FEC7E70D4800231A4643
:10C6100019460088FFF78EFEBFE700BF4C6002009E
:10C62000846002008B4C0200C32200209C2B00205F
:10C63000382B0020AE2D0020422B0020AD2D0020F5
:10C64000C0220020954C0200412B002008B5FCF7C9
:10C65000FFFF18B9BDE80840FFF72CBA08BD00007D
:10C6600010B59DF80820052A0FD1084A1978107BCB
:10C6700088420AD0D3F801301BBA092B05D90448E7
:10C680001173002404600348036010BDD72C002000
:10C690003C2B00208422002000780549054A012314
:10C6A0000B70137000B97047034A1370704700BFD6
:10C6B000B42D0020B32D0020B22D002008B5037842
:10C6C0004BB9054B3B211888FFF72AFE18B1BDE88E
:10C6D0000840FDF781BA08BDC0220020012A0FD111
:10C6E0000F4A10481370104B002119700F4B12782D
:10C6F0000F49C01AC008000440F00300FDF7F2B86B
:10C70000022A0CD1064A074800211170064A09493D
:10C710001370064B1278C01AC0080004ECE770478B
:10C72000382B002084600200AE2D00204C600200F7
:10C73000A24C0200BE4C020070B503780546002BE7
:10C7400040F08C804068022101F0AAF808B1FDF7A2
:10C7500043FA6B68424CB3F9000007F0A7FB41496C
:10C7600007F0ACFC404907F0F5FB404907F0F2FB4D
:10C7700007F0F2FD3E4B3F49C2B21A703E4BE41A3D
:10C78000E408240444F003042046FDF7ABF86B688A
:10C79000B3F9020007F08AFB324907F08FFC3249F7
:10C7A00007F0D8FB3149054607F0D4FB07F0D4FD6C
:10C7B000324902462046FDF795F82946304807F0F1
:10C7C0007DFC4FF07E5107F0BBFA01462D4807F083
:10C7D00075FC054607F0C0FD2B4902462046FDF7D3
:10C7E00081F8284606F050FF05F064FE07F054FA81
:10C7F0000546014607F0AEFB294607F0ABFB23498F
:10C8000007F0A8FB22490646284607F0A3FB21496A
:10C8100007F098FA0146304607F094FA01464FF0C7
:10C820007E5007F04BFC1C4907F08AFA05F01EFE0B
:10C8300007F06CFD194B1A4902B220461A80FDF729
:10C8400051F801F0FFF8174B0222C3F80823164BEA
:10C850008022C3F88021154B00221A7070BD00BFE2
:10C860008460020000F07F4566666640000020415B
:10C870003A2B0020D64C02004C600200DD4C020036
:10C880003333534000401C46EC4C02001FE9513446
:10C89000995483393E656A3A33938843B02D00201A
:10C8A000F74C02000070004000E100E0A82B0020DF
:10C8B000FDF792B930B5234D2A7889B0002A3BD1D3
:10C8C0000223ADF804302049062301A88DF8063074
:10C8D00000F04EFF08B1FDF77FF9002403238DF827
:10C8E0000F3002A9022320468DF810400294ADF8C3
:10C8F0000C3000F085FF08B1FDF76EF904238DF8C8
:10C900001B3005A9022301208DF81C400594ADF8C9
:10C91000183000F075FF08B1FDF75EF90B480221F1
:10C9200000F0BEFF08B1FDF757F90948022100F0F9
:10C93000B7FF08B1FDF750F901232B7001F004F89F
:10C9400009B030BDA82B002039C70100442B0020BE
:10C95000482B00202DE9F04F4FF0805391B0596ED5
:10C960001A6EBD4B080E1870080C5870D970080A62
:10C97000110E1971110C5971110A987099710020DA
:10C980004FF48041DA71FCF711FE08B1FDF724F98C
:10C99000FCF74EFDFDF702FA08B1FDF71DF9AF4AAD
:10C9A000AF480121FDF72CFA08B1FDF715F94FF05A
:10C9B000A04203234FF48021C2F84837C2F80C1577
:10C9C0004FF08051C2F87037C2F80C15C2F86437C6
:10C9D0004FF00073C2F80C350023C2F878370E21EF
:10C9E0000C22CDE909124FF0CD620B9202228DF894
:10C9F00030209C489C4AADF8313009A98DF833307D
:10CA000001F078FB08B1FDF7E7F8984801F0A6FAC5
:10CA1000FFF73AF808B1FDF7DFF804F02FFE08B190
:10CA2000FDF7DAF8002309A90120099304F0F2FECA
:10CA300008B1FDF7D1F809A804F0BAFF08B1FDF775
:10CA4000CBF8FFF7DDFC8A48002103F0CFF808B1EE
:10CA5000FDF7C2F80023CDE909330B938548864BD7
:10CA6000089308A903F086F908B1FDF7B5F8834BE0
:10CA70000993834B0A938348834B0B9309A900F0D6
:10CA800071FD08B1FDF7A8F8804B1878FFF7E0FCBE
:10CA90001C22002109A805F04DF800234FF4A02224
:10CAA000CDE90932ADF832304FF4A0328DF8343090
:10CAB000774B0B920E930322764B8DF8302009A80A
:10CAC0000F9301F089FF08B1FDF786F8FFF766FCC8
:10CAD0007148002240F26661FDF7A4F909A8FFF74A
:10CAE00017FC08B1FDF778F86C4A0DF12501062313
:10CAF000013B11F8010B02F8010913F0FF03F7D114
:10CB0000674D684B6849ED1AED082D0445F00305A3
:10CB10002846FCF7E3FEFCF79BFD06460028FAD109
:10CB2000624C81468046624ADFF88CB184F800800E
:10CB3000012382F800804D488BF8008009AACDF8C7
:10CB40000090F1B28DF8243001F084FA4FF0050A1C
:10CB50005F4623782BB90AF1FF3A1AF0FF0A40F03A
:10CB6000C3809BF8003023B9524932462846FCF76F
:10CB7000B9FEFCF76DFD0028FBD101367F2ED2D126
:10CB800048F21D032070ADF8243038700223009065
:10CB900009AA36480E2101F05DFA0A26237823B946
:10CBA000013E16F0FF0640F0A280FFF74FFDFFF7B1
:10CBB0004DFDFFF74BFD1B23ADF824300023237000
:10CBC0002A483B7009AA00930E21022301F042FA81
:10CBD0000A26237823B9013E16F0FF0640F08A802A
:10CBE000FFF734FDFFF732FDFFF730FD2123ADF8ED
:10CBF0002430002323701D483B7009AA00930E21A6
:10CC0000022301F027FA0A2623781BB9013E16F009
:10CC1000FF0672D11F23ADF8243000232370134880
:10CC20003B7009AA00930E21022301F013FA0A2691
:10CC300023781BB9013E16F0FF0661D148F21B03B1
:10CC4000ADF824300023237008483B7009AA0093F4
:10CC50000E21022332E000BFF82B002039C301006F
:10CC6000904D0200944D020099C60100984D0200BB
:10CC70008C2B00209C2B002099C30100B9C301001C
:10CC8000DDC60100AC2B002061C60100412B002055
:10CC9000BDC60100B1C80100A0220020FD2B00206C
:10CCA000846002004C600200FF4C0200B42D0020A2
:10CCB000B32D0020114D0200B22D002001F0CAF961
:10CCC0000A2623781BB9013E16F0FF061BD1C24C81
:10CCD0004FF0A0434FF48022C3F80825264623785E
:10CCE000A3B9FFF7B3FCFAE7FFF7B0FC31E7FFF7B2
:10CCF000ADFC53E7FFF7AAFC6BE7FFF7A7FC83E760
:10CD0000FFF7A4FC94E7FFF7A1FCDAE70023237008
:10CD1000337813B9FFF79AFCFAE700243470FFF771
:10CD2000C9FD4FF0A0434FF48022C3F80C254FF00B
:10CD30008052AA4EC3F80C254FF00072C3F80C25A0
:10CD4000A7492846FCF7CAFDA64934700822301DC1
:10CD50007470B470F47004F0DFFECDE905443473F0
:10CD60000394274604944FF080484FF0A043D3F833
:10CD70001025520000F166819B4A1078039A013217
:10CD800092B203924FF080514FF00072002800F0F1
:10CD90005181C3F80C15C3F80825039B0A2B3ED913
:10CDA000914B1B789BB1914C00232370904B1878CA
:10CDB000FFF7B4FAFFF724FB2078FFF749FBFFF7F2
:10CDC000EDFA4FF0A0434FF48022C3F80C254FF04A
:10CDD000A0434FF08052C3F80C257F4E4FF00072F5
:10CDE000C3F80C250A2400273378002B00F0278194
:10CDF000013C14F0FF043770F6D14FF0A0434FF020
:10CE00008052C3F808254FF00072C3F80825764A0F
:10CE100003941378B3FA83F35B0913702746724BBC
:10CE20001B78002B00F0D6800623724EDFF8F891B5
:10CE30008DF8203000233370099389F80030ADF865
:10CE4000283000936C48012308AA0E2101F002F952
:10CE50004FF00A0A33782BB90AF1FF3A1AF0FF0AA9
:10CE600040F0FB80654E64480023337009AA89F8BE
:10CE700000300E21062301F003F94FF00A09337840
:10CE80002BB909F1FF3919F0FF0940F0E9809DF94C
:10CE9000250007F00BF85A4907F05CF807F036FA5E
:10CEA00006B29DF9270007F001F8554907F052F83E
:10CEB00007F02CFA0FFA80F99DF9290006F0F6FF29
:10CEC0004F4907F047F807F021FA0FFA80FA4B466E
:10CED00032464C49CDF800A02846FCF716FD3046F6
:10CEE00006F0E4FF414605F01FFB8346484606F086
:10CEF000DDFF414605F018FB0146584606F022FFCB
:10CF00008346504606F0D2FF414605F00DFB014630
:10CF1000584606F017FF05F091FB05F0A7FA07F059
:10CF20001BFA80B2874238BFCDE9059ADFF8FC9042
:10CF300038BF049699F8003038BF07464BB14FF020
:10CF4000A0464FF4802A002C40F08D80C6F808A53A
:10CF50000124DFF8DC902C4EB9F800004FF6FF7387
:10CF6000984200F01981294B1B7803F0FF0B002B2E
:10CF700000F0F380DFF874A09AF80030A3B1244BDE
:10CF80001A78012A40F0E2804FF0000B83F800B0DD
:10CF9000204B21491B78114A00F0F5FA1F498AF805
:10CFA00000B02846FCF79AFC338801339BB23380EB
:10CFB00033889BB21E2B0DD9194E337853B91321E8
:10CFC000B9F80000FFF7ACF9012316493370284681
:10CFD000FCF784FC004EE4E0392B0020D72C002025
:10CFE0001B4D0200F82B0020C2220020412B002004
:10CFF00098220020B42D0020984D0200B32D00206F
:10D00000C1CA7F412B4D0200422B0020382B00204B
:10D01000C3220020AC2D0020AC2B0020524D02007A
:10D02000AD2D00207C4D0200B22D0020402B0020B1
:10D03000C0220020C3F80815C3F80C25ADE6FFF7A1
:10D0400005FBD1E64FF08052C3F808254FF000727F
:10D05000C3F8082500230393E1E6FFF7F7FAF9E6A2
:10D06000FFF7F4FA0BE7FFF725FCC6F80CA5524EC4
:10D07000524C4FF0000BD5225946304684F800B090
:10D0800004F058FD4E4B4F491B780A27B3FBF7F2CB
:10D0900007FB1233DBB2304604F054FD4A4B2070DC
:10D0A0008246B3F9000090FBF7F207FB120000B2D2
:10D0B000079204F0E7FC079A4249034656FA8AF0C1
:10D0C00004F040FD2378049A40491844C0B220700F
:10D0D000304404F037FD2378059A3C491844C0B227
:10D0E0002070304404F02EFD2378069A3849184405
:10D0F000C0B22070304404F025FD2278354B024444
:10D10000D2B202F10D01197033482270314604F099
:10D1100003FD324B324C1A8889F800B04FF6FF738A
:10D120009A420AD12F4B1878FFF7F8F8FFF768F901
:10D130002078FFF78DF9FFF731F9012323702A4991
:10D1400028460024FCF7CAFB274602E71B78022B7F
:10D150007FF42AAF1E23338026E7244B1B78002B55
:10D160003FF422AFDFF878A09AF8003083B1204B6B
:10D170001A786AB183F800B0164B1E491B781E4A14
:10D1800000F01DFA1D498AF800B02846FCF7A6FBFE
:10D190001B4B00221A8007E7002333801AE7FFF7B2
:10D1A00055FA3378002BFAD000233370FCF750FA8D
:10D1B0000028FBD1D9E500BF012C0020D62C00208F
:10D1C0003A2B00203F4D0200B02D0020424D0200BE
:10D1D0007A550200AC2D0020E42C0020C022002053
:10D1E000412B002098220020464D0200AE2D002049
:10D1F000C3220020AC2B0020D72C0020694D020058
:10D20000422B0020A8DF7047AEDF704762DF704717
:10D21000F7B50388502B05460C4603D0572B4ED04C
:10D2200003B0F0BDC3884A8E9A4213D14A6C8AB1CA
:10D23000038A022BF4D1123001F05BFD0346666CC9
:10D24000A88803B1012301222146B44603B0BDE8FA
:10D25000F0406047E28D9A420DD1A66C5EB12B8AF8
:10D26000002BDDD0DBB20093012205F11203A88868
:10D270002146B047D4E7628F9A4211D1626C7AB1ED
:10D280002E8A022ECCD105F1120001F032FD0346A8
:10D29000676CA88803B1012332462146BC46D5E716
:10D2A000E28E9A42BCD1A66C002EB9D02B8A002BFC
:10D2B000B6D0DBB20093022205F11203D7E70B6C64
:10D2C000002BADD0808803B0BDE8F04018470000C7
:10D2D0002DE9F04301268FB041F60A0302460446C9
:10D2E00069463046ADF800308DF80260FFF78AFFDE
:10D2F0000346002840F0B9805E4D2868696801AA9D
:10D3000003C2297A117006A81946202204F012FCE3
:10D3100042F62423ADF818304FF0081307939DF818
:10D320002530A08D8DF8296043F0020301ADA21CC9
:10D3300006A98DF82530089501F0DFFC034600288A
:10D3400040F093804C4B2A4603F110071868596847
:10D35000164603C60833BB423246F7D11B783370FA
:10D360002022002106A804F0E5FB42F62523ADF8B3
:10D3700018304FF0101307939DF82530A08D0895B5
:10D3800043F00203012604F10A0206A98DF82530B4
:10D390008DF8296001F0B1FC0346002865D1DFF863
:10D3A000E080D8F80000B8F80490019019462022D7
:10D3B00006A8A5F8049004F0BDFB42F62723ADF8BB
:10D3C00018309DF82530A08D089543F002034FF0EA
:10D3D000051704F1120206A98DF8253007978DF87C
:10D3E000296001F08AFC034600283ED1D8F80000ED
:10D3F00028601946202206A8A5F8049004F09AFB9C
:10D4000042F62823ADF818309DF82530A08D0797F7
:10D4100043F0020304F11A0206A98DF8253008959D
:10D420008DF8296001F069FC0346F0B9134A1068D1
:10D43000928828601946AA8006A8202204F07AFB68
:10D4400042F62923ADF818309DF82530A08D0797B6
:10D4500043F0020304F1220206A98DF82530089555
:10D460008DF8296001F049FC034618460FB0BDE86D
:10D47000F08300BFA44D0200AD4D0200BE4D02007E
:10D48000C44D02002DE9F041344B8EB002AA04468F
:10D4900003F11007164618685968154603C5083386
:10D4A000BB422A46F7D104F12A013046FFF7AEFE0F
:10D4B00000284FD194F82A308DF8063004F12C0260
:10D4C0004AF6144301A90120ADF80430FFF79AFE93
:10D4D00000283FD10146202206A804F02BFB4AF683
:10D4E0001643ADF8183094F82A301D4D8DF81A30D7
:10D4F000BDF82430A08D2B4041F601074FF0D51622
:10D500003B4340F2011804F1360206A90796ADF834
:10D510002430ADF82A8001F0F0FBD8B90146202272
:10D5200006A804F007FB4AF61543ADF8183094F846
:10D530002A308DF81A30BDF82430A08D07961D4092
:10D540002F4304F12E0206A9ADF82470ADF82A800D
:10D5500001F0D3FB0EB0BDE8F08100BFCA4D020060
:10D5600000E7FFFF38B50B6803644B6843648B68C2
:10D57000836404460D46FFF7ABFE29462046BDE80E
:10D580003840FFF77FBF70B586B004460E4615469B
:10D590000021102202A8ADF8063004F0CBFA0123D6
:10D5A0008DF80A30F38DADF8083002A90DF10603AD
:10D5B000204605950493FFF727FE06B070BD70B5B1
:10D5C00086B004460E4615460021102202A8ADF88A
:10D5D000063004F0AFFA01238DF80A30F38EADF86F
:10D5E000083002A90DF10603204605950493FFF7C4
:10D5F0000BFE06B070BD00F1804000F5E040002356
:10D6000082B0036003680193019B02B07047000081
:10D61000F0B5504B504C1B6885B0002B3DD04FF4FB
:10D62000827094F82E20FFF7E6FF2AB394F82F308B
:10D6300013BB4A4B1B68002B33D04FF48070FFF7AD
:10D64000DAFF638B94F82D108B424FD922895B1A35
:10D650009BB292B26383D31A626802EB4303404ADF
:10D66000C2F82C36C2F830164FF48270FFF7C3FFB1
:10D670003C4B01221A6014E0636802932389ADF8E1
:10D680000C30E36800218DF8041023BB2374236859
:10D6900001A89847002384F82F3094F82E30002BEF
:10D6A000C7D1314B1B685BB14FF48870FFF7A3FF04
:10D6B0000023237402238DF8043001A823689847BF
:10D6C0002A4B1B68EBB14FF48A70FFF794FF0023DD
:10D6D000237405B0F0BD208B608363602081E1601E
:10D6E000002AD4D11E4B01221A60D0E7BCD1E368D6
:10D6F000012284F82F2013B100226283AFE76383F5
:10D70000B2E766694FF000470125002EE1D0B6FA76
:10D7100086F227FA02F34632920026EA030602F165
:10D72000804303F5E0431B68002BEED01046FFF763
:10D7300062FFA2F58C72D30882F00402C2F3800269
:10D740008DF808308DF8045023688DF8092001A861
:10D750009847DAE704710040B82D002000710040BE
:10D7600000700040047000401071004014710040CF
:10D7700038B5204A92F82C300446002B37D111607E
:10D780001D490078C1F8F0056078C1F8F405E0782B
:10D79000137482F82D30536182F82F3001256FF019
:10D7A000004382F82E0082F82C504FF48270C1F8AA
:10D7B0000833FFF720FF4FF48070FFF71CFF4FF492
:10D7C0008A70FFF718FFA3780C485B01DBB280F882
:10D7D0000733802303600223C1F8043392F82E300C
:10D7E0000BB1C1F80453C1F80055002038BD082022
:10D7F000FCE700BFB82D00200070004000E100E011
:10D8000010B5264B1A7C002A45D100F10C0403EB1D
:10D810004402127922B993F82D20013283F82D2089
:10D8200003EB4403CA791A710A7A5A714B788A78E1
:10D830001B01120202F4E06203F0300313430A7882
:10D8400002F003021343CA78120302F48052134316
:10D850000A79120402F4E02213434A79120502F411
:10D86000801213438A79120602F080721343020178
:10D8700002F1804202F5E042000100F18040C2F86E
:10D88000183500F5E040CB790A7AC0F81425C0F8C5
:10D890001035002010BD1120FCE700BFB82D00207E
:10D8A00070B5264A264B05461220C2F808031C7C98
:10D8B000022C03D1C2F80403112070BD187C01288A
:10D8C0001DD1D86818B10223C2F80433F4E7DD6033
:10D8D000198393F82E3063B91A4A1368002BFCD0D1
:10D8E0004FF48070FFF787FE144BC3F82C56C3F833
:10D8F0003016124B0222C3F804230020DDE7022079
:10D90000C2F8040393F82E405D60012600201E74C7
:10D91000D86019813CB1598393F82D30C2F82C5648
:10D92000C2F83036C9E7C2F82C564FF48070C2F8FE
:10D930003016FFF760FE20461660BEE7007000401C
:10D94000B82D002000710040084A117C0129CBB29B
:10D9500009D192F82E0018B1054A002013607047D3
:10D96000044A136070470820704700BFB82D00209C
:10D970000070004004700040F0B51B4F8BB207EB05
:10D98000001443EA0243C4F81C35184B40005C699C
:10D9900000F1010C4FF0004611F5006F26FA0CF66D
:10D9A0004FF0800505FA00F50BBFB44334435C61CA
:10D9B0005C610CBFC7F80853C7F8045340244FF00C
:10D9C00000455969844025FA00F040F2FF75AA42EB
:10D9D000054A0BBF81430143596159610CBFC2F82D
:10D9E0000843C2F80443F0BD00700040B82D002089
:10D9F00010B5124B1A7CF2B900F10C0103EB410295
:10DA0000127922B193F82D20013A83F82D2003EBEF
:10DA1000410300249C80030103F1804303F5E043AC
:10DA20000749C3F8144540F2FF72C3F81045FFF7E9
:10DA3000A3FF204610BD1120FCE700BFB82D002039
:10DA400000F8FFFF38B5154B6FF00042C3F808230C
:10DA5000134A8021C2F88010BFF34F8FBFF36F8F3E
:10DA6000104A01211160104942F21072086808B989
:10DA7000013AFBD10D4D0024C3F800452C7405EB91
:10DA800044031B7F13B1E0B2FFF7B2FF0134082C4F
:10DA9000F5D1002385F82C3038BD00BF0070004060
:10DAA00000E100E00870004014710040B82D002033
:10DAB0000023435082B043580193019B02B070474A
:10DAC00010B502468B6A486B98424FF0010305D2AD
:10DAD000496A095CC2F81C15184604E091F82C004C
:10DAE00010B1D361002010BD0C6A640603D5D36168
:10DAF00081F82D30F7E75361EEE770B5D0F8046197
:10DB000004460D4626B14FF48271FFF7D1FF01267E
:10DB100095F82F2022B34FF492712046FFF7C8FFEB
:10DB20004FF48E71FFF7C4FF4FF48471FFF7C0FF0D
:10DB3000002E67D095F82F20002385F82D3082BB6A
:10DB4000AB6A696B99421CBF1646052386F0010635
:10DB50001CBFC4F80025C4F8003585F82F6021E00B
:10DB6000D4F824314BB14FF492712046FFF7A0FF57
:10DB70000123636185F82F30DAE7D4F81C319BB1BB
:10DB80004FF48E712046FFF793FF6B6B01336B638D
:10DB9000D4F82431002BE6D12946FFF791FF002865
:10DBA000C6D10022104670BDD4F80831002BBFD07A
:10DBB0004FF484712046FFF77BFFD4F82431002B0B
:10DBC000D1D16B6BA96A8B42B2D2696AD4F81805BD
:10DBD000C8546B6BA96A0133481E83426B6308D13A
:10DBE000286A400610D40223C4F8003201232362BD
:10DBF0009EE78B42FAD12B6A5B0699D5022385F802
:10DC00002D30CFE70122CDE78B42EFD1F6E70000C0
:10DC100037B5344B01930D464FF482710446FFF73C
:10DC200047FF4FF49271FFF743FF4FF48E71FFF7F8
:10DC30003FFF4FF48471FFF73BFF00236B6385F8D0
:10DC40002F30AB6A012B17D12B6A5B0614D4022349
:10DC5000C4F800320123236295F82D20022A18BF50
:10DC600023602B6893B140F28623AB60AB68C4F8A5
:10DC70000433002003B030BD0123E9E729462046E4
:10DC8000FFF73BFF28B1019B013B0193019B002B58
:10DC9000F4DC95F82F0050B9019B002BEADC00233F
:10DCA000C4F800350523C4F800350320E2E7D4F8B2
:10DCB000C434C4F8C43493B113F0010F14BF4FF44B
:10DCC0000240032048F2012213F0020F18BF104651
:10DCD00013F0040F48F2022318BF1846DCE70320B4
:10DCE000DAE700BFA086010037B5314B01930D463E
:10DCF0004FF482710446FFF7DBFE4FF49271FFF799
:10DD0000D7FE4FF48E71FFF7D3FE4FF48471FFF707
:10DD1000CFFE0023C0F800326B6385F82F3001235B
:10DD2000036295F82D209A4218BF83602946FFF7B9
:10DD3000C7FE2B6883B140F28623AB60AB68C4F8A2
:10DD40000433002003B030BD29462046FFF7D5FE3E
:10DD500028B1019B013B0193019B002BF4DC95F85A
:10DD60002F0050B9019B002BECDC0023C4F80035D8
:10DD70000523C4F800350320E4E7D4F8C434C4F81C
:10DD8000C43493B113F0010F14BF4FF402400320C9
:10DD900048F2012213F0020F18BF104613F0040FCF
:10DDA00048F2022318BF1846DCE70320DAE700BF79
:10DDB000A0860100F0B5294C294887B02146FFF71D
:10DDC0009CFEA446D8B994F82F60276AE6B9237B55
:10DDD0009A1E012A18D8616AA269914214D1E26997
:10DDE0006262C7F3401762691D48A262032B84F880
:10DDF0002C7084F82D60214603D1FFF775FF07B022
:10DE0000F0BDFFF705FFFAE7164D0FCD01AC0FC4CB
:10DE10002B682360F6B1124AD2F8C434C2F8C43475
:10DE200098070ED501238DF8003000238CF8303090
:10DE30007B0701D5002EE2D0DCE900316846984727
:10DE4000DDE7590701D50223EDE7DA074CBF0323CD
:10DE50000423E8E78DF80060E7E700BFE82D002025
:10DE600000300040F42D00202DE9F84F0679374DA1
:10DE70004FF03C0A0AFB06FA05EB0A089B4698F8A5
:10DE80002E3007460C469146002B5AD13049006887
:10DE9000FEF79AF9002856D145F80A90C8F808000C
:10DEA000C8F804B088F8300088F82D0088F83100F0
:10DEB000637B88F8383023684FF0A04203F5E073A5
:10DEC00040F20C6142F82310636803F5E07342F8F6
:10DED0002310D4E900213B68C3F80825C3F80C15CA
:10DEE000A268C3F82425B9F1000F22D03B68227B39
:10DEF000190B43F30733002BAEBF03F16043154BFF
:10DF000001F00F014FEA4212D2B2AABF03F56143FA
:10DF10005A5483F800233B681A0B43F30733002B52
:10DF200007DB02F01F0101228A405B090A4941F820
:10DF300023203C2303FB0655012385F82E30BDE842
:10DF4000F88F0820FBE71120F9E700BFE82D00203B
:10DF5000B5DD010014ED00E000E100E002680379A6
:10DF60000521C2F80015044A3C2101FB03230222CB
:10DF700083F82E20704700BFE82D00202DE9F047E0
:10DF8000324E90F80480D0F800903C2303FB0863E5
:10DF90000C4693F82D30012B174604D10B78012B3A
:10DFA00006D1082011E0022B02D10B78012BF8D109
:10DFB0003C25274BC9F8083305FB086595F8303038
:10DFC0002BB1AB68C9F804331120BDE8F08787F0A6
:10DFD0000403C3F3800385F830302F62A646BEE801
:10DFE0000F0005F10C0CACE80F00DEF80030CCF8A7
:10DFF00000306368AB62E3686B626378C9F88835A8
:10E000002378C8EB081A012B06EB8A0A19D0B3B99A
:10E01000C7F340173C2303FB0863514683F82C7079
:10E020004846FFF761FE3C2303FB08F806EB0802B5
:10E0300056F80830002BC8D182F83030C5E70127E8
:10E04000E8E751464846FFF7E3FDECE7E82D0020FE
:10E050008642040010B586B00024CDE902349DF854
:10E0600020308DF80510A342CDE9042401A914BF86
:10E07000202222468DF80440FFF780FF06B010BD35
:10E0800010B586B0012402930023CDE903328DF848
:10E0900005101A4601A98DF804400593FFF76EFF9D
:10E0A00006B010BD1FB503788DF800308388ADF839
:10E0B000043083688DF80630C3688DF80730036933
:10E0C00002934369054A0393054B684653F8213090
:10E0D00052F82110984705B05DF804FB242E00206B
:10E0E000282E0020024B4FF4807043F001031847A4
:10E0F000F04D02002DE9F047174690F80090354AA0
:10E1000042F82970344A42F829304B7B80460C464D
:10E1100093B30B684FF0A04503F5E07340F20C6237
:10E1200045F823204B6803F5E073012645F82320CA
:10E130000B6806FA03F3C5F808354B6806FA03F3D3
:10E14000C5F808350B6803F5E07340F20D6245F839
:10E1500023204B6803F5E0734FF0000A45F82320B5
:10E16000FFF7C0FFD5F81025636822FA03F3DB0739
:10E170000ED5BAF1000F1ED1002F184A4B4608BF2A
:10E180003A46214608F10400BDE8F047FFF76CBEAF
:10E19000236806FA03F3C5F80C35FFF7A3FF2368DD
:10E1A00006FA03F3C5F808350AF1010AFFF79AFFEA
:10E1B000BAF1090FD6D1636801254FF0A04605FAE0
:10E1C00003F3C6F80C35FFF78DFF63689D40C6F872
:10E1D0000855D1E7282E0020242E0020A5E00100BC
:10E1E0000369C1688B429DBF8268D21802F1FF3279
:10E1F00003F1FF3394BF501A581A70472DE9F843C2
:10E20000D0E902940546A9EB0408406890452044F3
:10E210000F46144404D903F07FFCEC60BDE8F8839A
:10E220004246A4EB090403F077FC6868224607EB3A
:10E230000801F0E72DE9F843C56806468946174608
:10E240004FF000083469B3687068A54228BFE4182D
:10E25000013C621B5C1BBC4228BF3C46944228BF69
:10E26000144649462844224603F056FCB368254428
:10E27000AB4208BF00253F1BA044A144F560E1D19B
:10E280004046BDE8F883000010B5114C114AA26168
:10E290000223C4E90433104BE361A2644FF400731A
:10E2A0000E4A0F492362E26400231022E01DA3629C
:10E2B0006362E362A3656365E365226503F062FC64
:10E2C0000849204603F05EFC2023A37110BD00BF67
:10E2D00000330020F64D02003C2E00202C2E0020A2
:10E2E000FF4D0200034E0200F8B5184C182300FB46
:10E2F000033503FB00402544C46A012C0F46164633
:10E300000FD0022C1AD0F4B92846FFF769FF8642D5
:10E3100005D8324639462846FFF770FF3446204676
:10E32000F8BD2846FFF75CFF8642344628BF044606
:10E33000224639462846FFF761FFF0E72846BDE848
:10E34000F840FFF777BF0024E9E700BF0033002063
:10E35000FFF79ABF6DDF704779DF70477DDF704749
:10E3600064DF70472DE9F04F85B000250E9CBDF8A5
:10E370003CB0B4F800A00191074690461E46A9465D
:10E380003A884A450DDC45B12388013BA3EB0A03DB
:10E390009BB2FF2B3AD806F80A30002005B0BDE842
:10E3A000F08F7A6852F82900039000220DF10B01DA
:10E3B00003A8FFF7D5FF0028F0D19DF80B204245B8
:10E3C00021D12288002D14BF0020022002EB080179
:10E3D000014459451ADC3DB9013292B2019B2280B9
:10E3E000B35422880132228022880DF10B0132447D
:10E3F00003A8FFF7B5FF0028D0D121889DF80B2096
:10E400000A442280012509F10109B9E70C20C5E77A
:10E410002DE9F341089FBDF824801546CDE9007829
:10E42000022204461E46FFF79DFF50B933461022D4
:10E4300029462046CDE9087802B0BDE8F041FFF753
:10E4400091BF02B0BDE8F0812DE9F04F002317889D
:10E45000138090F82D3085B006460D46144653B310
:10E46000082F01D80C2027E102A8FFF773FF00282E
:10E4700040F0228123880822EA54238801339BB28A
:10E480001B222380EA542088013080B2208006229B
:10E490000DF10901284403F03FFB23889DF8082073
:10E4A00006339BB212F0FE0218BF01222380EA5409
:10E4B000238801332380B378FBB123880433BB4224
:10E4C000D0D802A8FFF748FF002840F0F580238845
:10E4D0000322EA54238801339BB219222380EA5491
:10E4E0002388BDF8082001339BB2E9182380EA5441
:10E4F000120A4A70238802332380F2789AB1238863
:10E50000D91CB942AED80221E954238801339BB209
:10E5100001212380E95423880B449BB22380EA54D1
:10E5200023880B4423807268AAB12388D91CB9427E
:10E5300098D8022192F90020E954238801339BB234
:10E540000A212380E954238801339BB22380EA54B3
:10E550002388013323803389002B40F0A180338A44
:10E560005BB1CDE900472B460722032106F11000DD
:10E57000FFF74EFF002840F09F80338B5BB1CDE961
:10E5800000472B461522142106F11800FFF740FF23
:10E59000002840F09180326A002A40F09080D6F83E
:10E5A0002480B8F1000F30D0B8F804302188981CCE
:10E5B0008A1C0244BA423FF655AFFE283FF652AFDE
:10E5C00003336B54238801339BB2FF222380EA5428
:10E5D000238801339BB22380B8F80020EA54E9185D
:10E5E000120A4A702088023080B22080B8F80420D5
:10E5F0005AB1D8F8081000296BD0284403F08CFADF
:10E600002388B8F804201344238096F82C30002B7C
:10E6100040F09A80307800284ED03388012B58D0B3
:10E62000228802F1020CBC453FF61CAF012805D13F
:10E630007378023313449F42FFF414AF023FBF1AB2
:10E64000BFB202A905EB0C00ADF80870FFF786FE1B
:10E6500090BB3178BDF80830022900F0BA8072789A
:10E660009A4202D3BB4240F2B280012940F0B3800B
:10E67000974293B2C0F0AF80ADF808300821BDF8E2
:10E680000830FE2B3FF6EEAE22880133AB542288D1
:10E69000013292B22280A9542288134423800BE0D5
:10E6A000CDE900472B460622022106F10800FFF7BC
:10E6B000AFFE00283FF453AF05B0BDE8F08FB4F8CB
:10E6C00000C00CF10603BB423FF6CCAE1188052911
:10E6D00001D80720F0E76FF4486E01EB0E039BB200
:10E6E0004FF27D3E7345F4D95388052BF1D96FF471
:10E6F0004860181880B27045EBD94FF6FF70814220
:10E7000003D0834201D09942E3D8052305F80C30A9
:10E71000238801339BB212212380E95423880133DB
:10E720009BB223801188E954E818090A41702388B4
:10E7300002339BB223805288EA54E918120A4A70C5
:10E740002388023323802AE7B36A002BC1D04FF01D
:10E7500000094FF00C0A4FF0160B96F82C305FFAB8
:10E7600089F293427FF656AFB16A0AFB02F201EBDF
:10E770000208B8F80430981CFE283FF673AE2088D3
:10E7800003332B54238801339BB2238005F803B055
:10E79000238801339BB223808A5AEA54E918120A6B
:10E7A0004A702088023080B22080B8F804205AB124
:10E7B000D8F8081000298CD0284403F0ADF923883C
:10E7C000B8F804201344238009F10109C5E70921A1
:10E7D00055E7BB42FBD9ADF808704FE775DF7047CE
:10E7E00076DF70477ADF70477BDF7047034B1A880C
:10E7F00082420CBF18460020704700BF58300020EE
:10E80000024B9B6903B11847704700BF3C300020A2
:10E8100073B585B22846FFF7E9FF044670B1164E7E
:10E82000027A337B9A420BD200F10A012846FFF7A5
:10E83000D5FFE8B1112801D0FFF7E2FF02B070BDAB
:10E8400000230372337C43B13B212846FFF7C8FF06
:10E8500030F0080301D0FFF7D3FF7369002BEDD030
:10E8600000228DF80420ADF8065001A89847E5E78E
:10E87000237A01332372E1E73C30002013B50B46C5
:10E88000497A02460E4869B9D0E901101C7A002C79
:10E8900018BF01465868FBF7C5FA08B1FFF7B0FF8B
:10E8A00002B010BD002119724369002BF8D001217C
:10E8B0008DF80410ADF8062001A89847F0E700BFD6
:10E8C0003C3000204B8802889A4213D842889A42F2
:10E8D00010D380888A8840F2F313984294BF031AB9
:10E8E000C31A934206D800F2F310904234BF0020BE
:10E8F000012070470020704770B50388122B014635
:10E9000059D004D8102B1ED0112B44D070BD502BE1
:10E91000FCD12F4BC288DB899A42F7D1038A022BA4
:10E92000F4D186883046FFF761FF05460028EDD018
:10E9300001F1120000F0DDF938BB6868FBF79DFAC1
:10E940000028E3D009E0C37B012BDFD14FF6FF7035
:10E95000FFF74CFF054620B90420BDE87040FFF7E3
:10E960004FBF8E881B4A0680002303721368C0F8CD
:10E970000A305368C0F80E3010310A30FFF7A2FF9A
:10E98000134B6872DB89002BC0D129463046BDE8A5
:10E990007040FFF773BF8088FFF728FF0446002808
:10E9A000B4D04068FBF769FA08B1FFF729FF4FF6CA
:10E9B000FF732380AAE786883046FFF717FF0546D6
:10E9C0000028A3D008310A30FFF77CFF6872DCE72B
:10E9D0003C3000206C300020F8B5064648B30546B0
:10E9E0000FCD154F3C460FC495E8070084E807009B
:10E9F0003068124C3C60B0B1FFF7F4FEC0B9326829
:10EA000013682360536863600D480E4A4FF6FF7326
:10EA100003800D4B40F8043F0021FBF7F1F900287B
:10EA200018BF032004E02046FFF7DEFE0028EBD0ED
:10EA3000F8BD0E20FCE700BF3C3000206C30002009
:10EA40005830002011E8010078300020F7B5174653
:10EA500001900E4691B1019C6CB100252C462946CF
:10EA600001A8FCF7A4FA18B13946A8B2B04701349E
:10EA70000135142DF3D1204603B0F0BD0C46FAE762
:10EA80000AB1FCF773BAFCF788BA73B50191019C1F
:10EA900006466CB100252C46294601A8FCF787FAEA
:10EAA00018B106EB440301349D800135142DF3D1D8
:10EAB0003046346002B070BD2DE9F043038884888D
:10EAC000103B8DB00A2B1ED8DFE803F006361D1D63
:10EAD0001D1D1D1D1D573B002C4DAB68DB430093D6
